{
  "contractName": "LedgerPullPayment",
  "abi": [
    {
      "constant": true,
      "inputs": [],
      "name": "totalPayments",
      "outputs": [
        {
          "name": "",
          "type": "uint256"
        }
      ],
      "payable": false,
      "stateMutability": "view",
      "type": "function"
    },
    {
      "constant": false,
      "inputs": [],
      "name": "withdrawPayments",
      "outputs": [],
      "payable": false,
      "stateMutability": "nonpayable",
      "type": "function"
    },
    {
      "constant": true,
      "inputs": [
        {
          "name": "",
          "type": "address"
        }
      ],
      "name": "payments",
      "outputs": [
        {
          "name": "",
          "type": "uint256"
        }
      ],
      "payable": false,
      "stateMutability": "view",
      "type": "function"
    },
    {
      "inputs": [],
      "payable": false,
      "stateMutability": "nonpayable",
      "type": "constructor"
    },
    {
      "constant": false,
      "inputs": [],
      "name": "savePayment",
      "outputs": [],
      "payable": true,
      "stateMutability": "payable",
      "type": "function"
    }
  ],
  "bytecode": "0x608060405234801561001057600080fd5b5061036d806100206000396000f300608060405260043610610061576000357c0100000000000000000000000000000000000000000000000000000000900463ffffffff1680625b4487146100665780636103d70b14610091578063d539d80d146100a8578063e2982c21146100b2575b600080fd5b34801561007257600080fd5b5061007b610109565b6040518082815260200191505060405180910390f35b34801561009d57600080fd5b506100a661010f565b005b6100b0610236565b005b3480156100be57600080fd5b506100f3600480360381019080803573ffffffffffffffffffffffffffffffffffffffff169060200190929190505050610242565b6040518082815260200191505060405180910390f35b60015481565b6000803391506000808373ffffffffffffffffffffffffffffffffffffffff1673ffffffffffffffffffffffffffffffffffffffff1681526020019081526020016000205490506000811415151561016657600080fd5b803073ffffffffffffffffffffffffffffffffffffffff16311015151561018c57600080fd5b6101a18160015461025a90919063ffffffff16565b60018190555060008060008473ffffffffffffffffffffffffffffffffffffffff1673ffffffffffffffffffffffffffffffffffffffff168152602001908152602001600020819055508173ffffffffffffffffffffffffffffffffffffffff166108fc829081150290604051600060405180830381858888f19350505050158015610231573d6000803e3d6000fd5b505050565b6102403334610273565b565b60006020528060005260406000206000915090505481565b600082821115151561026857fe5b818303905092915050565b6102c4816000808573ffffffffffffffffffffffffffffffffffffffff1673ffffffffffffffffffffffffffffffffffffffff1681526020019081526020016000205461032590919063ffffffff16565b6000808473ffffffffffffffffffffffffffffffffffffffff1673ffffffffffffffffffffffffffffffffffffffff1681526020019081526020016000208190555061031b8160015461032590919063ffffffff16565b6001819055505050565b6000818301905082811015151561033857fe5b809050929150505600a165627a7a723058204101c4748c27bb1a64c836c62a7d13beca5160a4950539ccc7897cb6a024b2470029",
  "source": "pragma solidity ^0.4.4;\nimport \"../../node_modules/openzeppelin-solidity/contracts/payment/PullPayment.sol\";\n\ncontract LedgerPullPayment is PullPayment {\n  constructor() public {\n  }\n  function savePayment() public payable {\n    PullPayment.asyncSend(msg.sender, msg.value);\n  }\n}\n",
  "sourcePath": "/Users/elkhalilbellakrid/Desktop/Playground_14/ledger-erc20-token/dumb-withdraw/contracts/TestPullPayment.sol",
  "compiler": {
    "name": "solc",
    "version": "0.4.24+commit.e67f0147.Emscripten.clang"
  },
  "schemaVersion": "2.0.1",
  "updatedAt": "2018-07-13T14:44:00.056Z"
}